{
  "contractName": "ContractsRegistry",
  "abi": [
    {
      "inputs": [],
      "stateMutability": "nonpayable",
      "type": "constructor"
    },
    {
      "anonymous": false,
      "inputs": [
        {
          "indexed": true,
          "internalType": "bytes32",
          "name": "role",
          "type": "bytes32"
        },
        {
          "indexed": true,
          "internalType": "bytes32",
          "name": "previousAdminRole",
          "type": "bytes32"
        },
        {
          "indexed": true,
          "internalType": "bytes32",
          "name": "newAdminRole",
          "type": "bytes32"
        }
      ],
      "name": "RoleAdminChanged",
      "type": "event"
    },
    {
      "anonymous": false,
      "inputs": [
        {
          "indexed": true,
          "internalType": "bytes32",
          "name": "role",
          "type": "bytes32"
        },
        {
          "indexed": true,
          "internalType": "address",
          "name": "account",
          "type": "address"
        },
        {
          "indexed": true,
          "internalType": "address",
          "name": "sender",
          "type": "address"
        }
      ],
      "name": "RoleGranted",
      "type": "event"
    },
    {
      "anonymous": false,
      "inputs": [
        {
          "indexed": true,
          "internalType": "bytes32",
          "name": "role",
          "type": "bytes32"
        },
        {
          "indexed": true,
          "internalType": "address",
          "name": "account",
          "type": "address"
        },
        {
          "indexed": true,
          "internalType": "address",
          "name": "sender",
          "type": "address"
        }
      ],
      "name": "RoleRevoked",
      "type": "event"
    },
    {
      "inputs": [],
      "name": "CONTRACTS_REGISTRY_ADMIN_ROLE",
      "outputs": [
        {
          "internalType": "bytes32",
          "name": "",
          "type": "bytes32"
        }
      ],
      "stateMutability": "view",
      "type": "function"
    },
    {
      "inputs": [],
      "name": "DEFAULT_ADMIN_ROLE",
      "outputs": [
        {
          "internalType": "bytes32",
          "name": "",
          "type": "bytes32"
        }
      ],
      "stateMutability": "view",
      "type": "function"
    },
    {
      "inputs": [],
      "name": "DISTRIBUTION_TOKEN_NAME",
      "outputs": [
        {
          "internalType": "bytes32",
          "name": "",
          "type": "bytes32"
        }
      ],
      "stateMutability": "view",
      "type": "function"
    },
    {
      "inputs": [],
      "name": "TOKEN_FARMING_NAME",
      "outputs": [
        {
          "internalType": "bytes32",
          "name": "",
          "type": "bytes32"
        }
      ],
      "stateMutability": "view",
      "type": "function"
    },
    {
      "inputs": [
        {
          "internalType": "bytes32",
          "name": "role",
          "type": "bytes32"
        }
      ],
      "name": "getRoleAdmin",
      "outputs": [
        {
          "internalType": "bytes32",
          "name": "",
          "type": "bytes32"
        }
      ],
      "stateMutability": "view",
      "type": "function"
    },
    {
      "inputs": [
        {
          "internalType": "bytes32",
          "name": "role",
          "type": "bytes32"
        },
        {
          "internalType": "address",
          "name": "account",
          "type": "address"
        }
      ],
      "name": "grantRole",
      "outputs": [],
      "stateMutability": "nonpayable",
      "type": "function"
    },
    {
      "inputs": [
        {
          "internalType": "bytes32",
          "name": "role",
          "type": "bytes32"
        },
        {
          "internalType": "address",
          "name": "account",
          "type": "address"
        }
      ],
      "name": "hasRole",
      "outputs": [
        {
          "internalType": "bool",
          "name": "",
          "type": "bool"
        }
      ],
      "stateMutability": "view",
      "type": "function"
    },
    {
      "inputs": [
        {
          "internalType": "bytes32",
          "name": "role",
          "type": "bytes32"
        },
        {
          "internalType": "address",
          "name": "account",
          "type": "address"
        }
      ],
      "name": "renounceRole",
      "outputs": [],
      "stateMutability": "nonpayable",
      "type": "function"
    },
    {
      "inputs": [
        {
          "internalType": "bytes32",
          "name": "role",
          "type": "bytes32"
        },
        {
          "internalType": "address",
          "name": "account",
          "type": "address"
        }
      ],
      "name": "revokeRole",
      "outputs": [],
      "stateMutability": "nonpayable",
      "type": "function"
    },
    {
      "inputs": [
        {
          "internalType": "bytes4",
          "name": "interfaceId",
          "type": "bytes4"
        }
      ],
      "name": "supportsInterface",
      "outputs": [
        {
          "internalType": "bool",
          "name": "",
          "type": "bool"
        }
      ],
      "stateMutability": "view",
      "type": "function"
    },
    {
      "inputs": [],
      "name": "getDistributionTokenContract",
      "outputs": [
        {
          "internalType": "address",
          "name": "",
          "type": "address"
        }
      ],
      "stateMutability": "view",
      "type": "function"
    },
    {
      "inputs": [],
      "name": "getTokenFarmingContract",
      "outputs": [
        {
          "internalType": "address",
          "name": "",
          "type": "address"
        }
      ],
      "stateMutability": "view",
      "type": "function"
    },
    {
      "inputs": [
        {
          "internalType": "bytes32",
          "name": "_name",
          "type": "bytes32"
        }
      ],
      "name": "getContract",
      "outputs": [
        {
          "internalType": "address",
          "name": "",
          "type": "address"
        }
      ],
      "stateMutability": "view",
      "type": "function"
    },
    {
      "inputs": [
        {
          "internalType": "bytes32",
          "name": "_contractKey",
          "type": "bytes32"
        },
        {
          "internalType": "address",
          "name": "_contractAddr",
          "type": "address"
        }
      ],
      "name": "addContract",
      "outputs": [],
      "stateMutability": "nonpayable",
      "type": "function"
    },
    {
      "inputs": [
        {
          "internalType": "bytes32",
          "name": "_contractKey",
          "type": "bytes32"
        }
      ],
      "name": "deleteContract",
      "outputs": [],
      "stateMutability": "nonpayable",
      "type": "function"
    }
  ],
  "bytecode": "0x608060405234801561001057600080fd5b50610029600080516020610eba83398151915233610046565b610041600080516020610eba83398151915280610054565b610146565b61005082826100a8565b5050565b600082815260208190526040902060010154819060405184907fbd79b86ffe0ab8e8776151514217cd7cacd52c909f66475c3af44e129f0b00ff90600090a460009182526020829052604090912060010155565b6000828152602081815260408083206001600160a01b038516845290915290205460ff16610050576000828152602081815260408083206001600160a01b03851684529091529020805460ff191660011790556101023390565b6001600160a01b0316816001600160a01b0316837f2f8788117e7eff1d82e926ec794901d17c78024a50270940304540a733656f0d60405160405180910390a45050565b610d65806101556000396000f3fe608060405234801561001057600080fd5b50600436106100f55760003560e01c80636ebd8c3011610097578063a217fddf11610066578063a217fddf14610262578063d547741f1461026a578063dec0257d1461027d578063e16c7d9814610290576100f5565b80636ebd8c30146101dc5780637377eaee146101fc5780638d20661f1461022357806391d148541461022b576100f5565b8063248a9ca3116100d3578063248a9ca31461017e5780632f2ff15d146101a157806336568abe146101b65780635188f996146101c9576100f5565b806301ffc9a7146100fa57806311366e3c146101225780632395444514610157575b600080fd5b61010d610108366004610ba7565b6102a3565b60405190151581526020015b60405180910390f35b6101497fd0a9e76dd33d7bb6abcd8e6c9c7d6754c9a2ecb46fadf76194483b4e2f6cdd8a81565b604051908152602001610119565b6101497f8e43c4751a99b37a0ac7c2998bc4a164de883ffef76f51e4899b90da9c080bf081565b61014961018c366004610b55565b60009081526020819052604090206001015490565b6101b46101af366004610b6d565b61033c565b005b6101b46101c4366004610b6d565b610368565b6101b46101d7366004610b6d565b6103f9565b6101e4610540565b6040516001600160a01b039091168152602001610119565b6101497f9ed7a6b891230fb9f92d630e9ee9681b776f0bf63e4a93ffe6257441d984c2e081565b6101e4610570565b61010d610239366004610b6d565b6000918252602082815260408084206001600160a01b0393909316845291905290205460ff1690565b610149600081565b6101b4610278366004610b6d565b61059b565b6101b461028b366004610b55565b6105c1565b6101e461029e366004610b55565b6106f6565b60007fffffffff0000000000000000000000000000000000000000000000000000000082167f7965db0b00000000000000000000000000000000000000000000000000000000148061033657507f01ffc9a7000000000000000000000000000000000000000000000000000000007fffffffff000000000000000000000000000000000000000000000000000000008316145b92915050565b60008281526020819052604090206001015461035981335b61078c565b610363838361080a565b505050565b6001600160a01b03811633146103eb5760405162461bcd60e51b815260206004820152602f60248201527f416363657373436f6e74726f6c3a2063616e206f6e6c792072656e6f756e636560448201527f20726f6c657320666f722073656c66000000000000000000000000000000000060648201526084015b60405180910390fd5b6103f582826108a8565b5050565b3360009081527f36042ba4d26f8efd5211ba8e36e35afdd0cd66a75e667b63b0fe294617dbe9ec602052604090205460ff166104895760405162461bcd60e51b815260206004820152602960248201527f436f6e74726163747352656769737472793a2043616c6c6572206973206e6f746044820152681030b71030b236b4b760b91b60648201526084016103e2565b6001600160a01b0381166105055760405162461bcd60e51b815260206004820152602c60248201527f436f6e74726163747352656769737472793a204e756c6c20616464726573732060448201527f697320666f7262696464656e000000000000000000000000000000000000000060648201526084016103e2565b600091825260016020526040909120805473ffffffffffffffffffffffffffffffffffffffff19166001600160a01b03909216919091179055565b600061056b7f9ed7a6b891230fb9f92d630e9ee9681b776f0bf63e4a93ffe6257441d984c2e06106f6565b905090565b600061056b7fd0a9e76dd33d7bb6abcd8e6c9c7d6754c9a2ecb46fadf76194483b4e2f6cdd8a6106f6565b6000828152602081905260409020600101546105b78133610354565b61036383836108a8565b3360009081527f36042ba4d26f8efd5211ba8e36e35afdd0cd66a75e667b63b0fe294617dbe9ec602052604090205460ff166106515760405162461bcd60e51b815260206004820152602960248201527f436f6e74726163747352656769737472793a2043616c6c6572206973206e6f746044820152681030b71030b236b4b760b91b60648201526084016103e2565b6000818152600160205260409020546001600160a01b03166106cb5760405162461bcd60e51b815260206004820152602d60248201527f436f6e74726163747352656769737472793a2054686973206d617070696e672060448201526c191bd95cdb89dd08195e1a5cdd609a1b60648201526084016103e2565b6000908152600160205260409020805473ffffffffffffffffffffffffffffffffffffffff19169055565b6000818152600160205260408120546001600160a01b03166107705760405162461bcd60e51b815260206004820152602d60248201527f436f6e74726163747352656769737472793a2054686973206d617070696e672060448201526c191bd95cdb89dd08195e1a5cdd609a1b60648201526084016103e2565b506000908152600160205260409020546001600160a01b031690565b6000828152602081815260408083206001600160a01b038516845290915290205460ff166103f5576107c8816001600160a01b03166014610927565b6107d3836020610927565b6040516020016107e4929190610be7565b60408051601f198184030181529082905262461bcd60e51b82526103e291600401610c68565b6000828152602081815260408083206001600160a01b038516845290915290205460ff166103f5576000828152602081815260408083206001600160a01b03851684529091529020805460ff191660011790556108643390565b6001600160a01b0316816001600160a01b0316837f2f8788117e7eff1d82e926ec794901d17c78024a50270940304540a733656f0d60405160405180910390a45050565b6000828152602081815260408083206001600160a01b038516845290915290205460ff16156103f5576000828152602081815260408083206001600160a01b0385168085529252808320805460ff1916905551339285917ff6391f5c32d9c69d2a47ea670b442974b53935d1edc7fd64eb21e047a839171b9190a45050565b60606000610936836002610cb3565b610941906002610c9b565b67ffffffffffffffff81111561096757634e487b7160e01b600052604160045260246000fd5b6040519080825280601f01601f191660200182016040528015610991576020820181803683370190505b5090507f3000000000000000000000000000000000000000000000000000000000000000816000815181106109d657634e487b7160e01b600052603260045260246000fd5b60200101906001600160f81b031916908160001a9053507f780000000000000000000000000000000000000000000000000000000000000081600181518110610a2f57634e487b7160e01b600052603260045260246000fd5b60200101906001600160f81b031916908160001a9053506000610a53846002610cb3565b610a5e906001610c9b565b90505b6001811115610aff577f303132333435363738396162636465660000000000000000000000000000000085600f1660108110610aad57634e487b7160e01b600052603260045260246000fd5b1a60f81b828281518110610ad157634e487b7160e01b600052603260045260246000fd5b60200101906001600160f81b031916908160001a90535060049490941c93610af881610d02565b9050610a61565b508315610b4e5760405162461bcd60e51b815260206004820181905260248201527f537472696e67733a20686578206c656e67746820696e73756666696369656e7460448201526064016103e2565b9392505050565b600060208284031215610b66578081fd5b5035919050565b60008060408385031215610b7f578081fd5b8235915060208301356001600160a01b0381168114610b9c578182fd5b809150509250929050565b600060208284031215610bb8578081fd5b81357fffffffff0000000000000000000000000000000000000000000000000000000081168114610b4e578182fd5b60007f416363657373436f6e74726f6c3a206163636f756e742000000000000000000082528351610c1f816017850160208801610cd2565b7f206973206d697373696e6720726f6c65200000000000000000000000000000006017918401918201528351610c5c816028840160208801610cd2565b01602801949350505050565b6000602082528251806020840152610c87816040850160208701610cd2565b601f01601f19169190910160400192915050565b60008219821115610cae57610cae610d19565b500190565b6000816000190483118215151615610ccd57610ccd610d19565b500290565b60005b83811015610ced578181015183820152602001610cd5565b83811115610cfc576000848401525b50505050565b600081610d1157610d11610d19565b506000190190565b634e487b7160e01b600052601160045260246000fdfea2646970667358221220eb68a03363bf5d24b284d6bd2cd5cc9638ceb3a779e1c509f8a6e83062e087c564736f6c634300080300338e43c4751a99b37a0ac7c2998bc4a164de883ffef76f51e4899b90da9c080bf0",
  "immutableReferences": {},
  "source": "// SPDX-License-Identifier: LGPL-3.0-or-later\npragma solidity 0.8.3;\n\nimport \"@openzeppelin/contracts/access/AccessControl.sol\";\n\ncontract ContractsRegistry is AccessControl {\n    bytes32 public constant CONTRACTS_REGISTRY_ADMIN_ROLE =\n        keccak256(\"CONTRACTS_REGISTRY_ADMIN_ROLE\");\n\n    bytes32 public constant DISTRIBUTION_TOKEN_NAME = keccak256(\"DISTRIBUTION_TOKEN\");\n    bytes32 public constant TOKEN_FARMING_NAME = keccak256(\"TOKEN_FARMING\");\n\n    mapping(bytes32 => address) private _contracts;\n\n    modifier onlyAdmin() {\n        require(\n            hasRole(CONTRACTS_REGISTRY_ADMIN_ROLE, msg.sender),\n            \"ContractsRegistry: Caller is not an admin\"\n        );\n        _;\n    }\n\n    constructor() {\n        _setupRole(CONTRACTS_REGISTRY_ADMIN_ROLE, msg.sender);\n        _setRoleAdmin(CONTRACTS_REGISTRY_ADMIN_ROLE, CONTRACTS_REGISTRY_ADMIN_ROLE);\n    }\n\n    function getDistributionTokenContract() external view returns (address) {\n        return getContract(DISTRIBUTION_TOKEN_NAME);\n    }\n\n    function getTokenFarmingContract() external view returns (address) {\n        return getContract(TOKEN_FARMING_NAME);\n    }\n\n    function getContract(bytes32 _name) public view returns (address) {\n        require(_contracts[_name] != address(0), \"ContractsRegistry: This mapping doesn't exist\");\n\n        return _contracts[_name];\n    }\n\n    function addContract(bytes32 _contractKey, address _contractAddr) external onlyAdmin {\n        require(_contractAddr != address(0), \"ContractsRegistry: Null address is forbidden\");\n\n        _contracts[_contractKey] = _contractAddr;\n    }\n\n    function deleteContract(bytes32 _contractKey) external onlyAdmin {\n        require(\n            _contracts[_contractKey] != address(0),\n            \"ContractsRegistry: This mapping doesn't exist\"\n        );\n\n        delete _contracts[_contractKey];\n    }\n}\n",
  "sourcePath": "/home/oleg/go/src/gitlab.com/tokenfarming/contracts/ContractsRegistry.sol",
  "compiler": {
    "name": "solc",
    "version": "0.8.3+commit.8d00100c.Emscripten.clang"
  },
  "schemaVersion": "3.4.1",
  "updatedAt": "2021-06-29T22:04:47.284Z",
  "devdoc": {
    "kind": "dev",
    "methods": {
      "getRoleAdmin(bytes32)": {
        "details": "Returns the admin role that controls `role`. See {grantRole} and {revokeRole}. To change a role's admin, use {_setRoleAdmin}."
      },
      "grantRole(bytes32,address)": {
        "details": "Grants `role` to `account`. If `account` had not been already granted `role`, emits a {RoleGranted} event. Requirements: - the caller must have ``role``'s admin role."
      },
      "hasRole(bytes32,address)": {
        "details": "Returns `true` if `account` has been granted `role`."
      },
      "renounceRole(bytes32,address)": {
        "details": "Revokes `role` from the calling account. Roles are often managed via {grantRole} and {revokeRole}: this function's purpose is to provide a mechanism for accounts to lose their privileges if they are compromised (such as when a trusted device is misplaced). If the calling account had been granted `role`, emits a {RoleRevoked} event. Requirements: - the caller must be `account`."
      },
      "revokeRole(bytes32,address)": {
        "details": "Revokes `role` from `account`. If `account` had been granted `role`, emits a {RoleRevoked} event. Requirements: - the caller must have ``role``'s admin role."
      },
      "supportsInterface(bytes4)": {
        "details": "See {IERC165-supportsInterface}."
      }
    },
    "version": 1
  },
  "userdoc": {
    "kind": "user",
    "methods": {},
    "version": 1
  }
}