{
  "contractName": "TokenFarming",
  "abi": [
    {
      "inputs": [
        {
          "internalType": "address",
          "name": "_stakeToken",
          "type": "address"
        },
        {
          "internalType": "address",
          "name": "_distributioToken",
          "type": "address"
        },
        {
          "internalType": "uint256",
          "name": "_rewardPerBlock",
          "type": "uint256"
        }
      ],
      "stateMutability": "nonpayable",
      "type": "constructor"
    },
    {
      "anonymous": false,
      "inputs": [
        {
          "indexed": true,
          "internalType": "address",
          "name": "previousOwner",
          "type": "address"
        },
        {
          "indexed": true,
          "internalType": "address",
          "name": "newOwner",
          "type": "address"
        }
      ],
      "name": "OwnershipTransferred",
      "type": "event"
    },
    {
      "anonymous": false,
      "inputs": [
        {
          "indexed": false,
          "internalType": "address",
          "name": "_claimer",
          "type": "address"
        },
        {
          "indexed": false,
          "internalType": "uint256",
          "name": "_rewardsAmount",
          "type": "uint256"
        }
      ],
      "name": "RewardsClaimed",
      "type": "event"
    },
    {
      "anonymous": false,
      "inputs": [
        {
          "indexed": false,
          "internalType": "address",
          "name": "_staker",
          "type": "address"
        },
        {
          "indexed": false,
          "internalType": "uint256",
          "name": "_stakeAmount",
          "type": "uint256"
        }
      ],
      "name": "TokensStaked",
      "type": "event"
    },
    {
      "anonymous": false,
      "inputs": [
        {
          "indexed": false,
          "internalType": "address",
          "name": "_staker",
          "type": "address"
        },
        {
          "indexed": false,
          "internalType": "uint256",
          "name": "_withdrawAmount",
          "type": "uint256"
        }
      ],
      "name": "TokensWithdrawn",
      "type": "event"
    },
    {
      "inputs": [],
      "name": "cumulativeSum",
      "outputs": [
        {
          "internalType": "uint256",
          "name": "",
          "type": "uint256"
        }
      ],
      "stateMutability": "view",
      "type": "function"
    },
    {
      "inputs": [],
      "name": "distributionToken",
      "outputs": [
        {
          "internalType": "contract ERC20",
          "name": "",
          "type": "address"
        }
      ],
      "stateMutability": "view",
      "type": "function"
    },
    {
      "inputs": [],
      "name": "lastUpdate",
      "outputs": [
        {
          "internalType": "uint256",
          "name": "",
          "type": "uint256"
        }
      ],
      "stateMutability": "view",
      "type": "function"
    },
    {
      "inputs": [],
      "name": "owner",
      "outputs": [
        {
          "internalType": "address",
          "name": "",
          "type": "address"
        }
      ],
      "stateMutability": "view",
      "type": "function"
    },
    {
      "inputs": [],
      "name": "renounceOwnership",
      "outputs": [],
      "stateMutability": "nonpayable",
      "type": "function"
    },
    {
      "inputs": [],
      "name": "rewardPerBlock",
      "outputs": [
        {
          "internalType": "uint256",
          "name": "",
          "type": "uint256"
        }
      ],
      "stateMutability": "view",
      "type": "function"
    },
    {
      "inputs": [],
      "name": "stakeToken",
      "outputs": [
        {
          "internalType": "contract ERC20",
          "name": "",
          "type": "address"
        }
      ],
      "stateMutability": "view",
      "type": "function"
    },
    {
      "inputs": [],
      "name": "totalPoolStaked",
      "outputs": [
        {
          "internalType": "uint256",
          "name": "",
          "type": "uint256"
        }
      ],
      "stateMutability": "view",
      "type": "function"
    },
    {
      "inputs": [
        {
          "internalType": "address",
          "name": "newOwner",
          "type": "address"
        }
      ],
      "name": "transferOwnership",
      "outputs": [],
      "stateMutability": "nonpayable",
      "type": "function"
    },
    {
      "inputs": [
        {
          "internalType": "address",
          "name": "",
          "type": "address"
        }
      ],
      "name": "userInfos",
      "outputs": [
        {
          "internalType": "uint256",
          "name": "stakedAmount",
          "type": "uint256"
        },
        {
          "internalType": "uint256",
          "name": "lastCumulativeSum",
          "type": "uint256"
        },
        {
          "internalType": "uint256",
          "name": "aggregatedReward",
          "type": "uint256"
        }
      ],
      "stateMutability": "view",
      "type": "function"
    },
    {
      "inputs": [
        {
          "internalType": "uint256",
          "name": "_newRewardPerBlock",
          "type": "uint256"
        }
      ],
      "name": "updateRewardPerBlock",
      "outputs": [],
      "stateMutability": "nonpayable",
      "type": "function"
    },
    {
      "inputs": [
        {
          "internalType": "uint256",
          "name": "_stakeAmount",
          "type": "uint256"
        }
      ],
      "name": "stake",
      "outputs": [],
      "stateMutability": "nonpayable",
      "type": "function"
    },
    {
      "inputs": [
        {
          "internalType": "uint256",
          "name": "_amountToWithdraw",
          "type": "uint256"
        }
      ],
      "name": "withdrawFunds",
      "outputs": [],
      "stateMutability": "nonpayable",
      "type": "function"
    },
    {
      "inputs": [],
      "name": "claimRewards",
      "outputs": [],
      "stateMutability": "nonpayable",
      "type": "function"
    },
    {
      "inputs": [
        {
          "internalType": "address",
          "name": "_userAddr",
          "type": "address"
        },
        {
          "internalType": "uint256",
          "name": "_stakeTokenPrice",
          "type": "uint256"
        },
        {
          "internalType": "uint256",
          "name": "_distributionTokenPrice",
          "type": "uint256"
        }
      ],
      "name": "getAPY",
      "outputs": [
        {
          "internalType": "uint256",
          "name": "_resultAPY",
          "type": "uint256"
        }
      ],
      "stateMutability": "view",
      "type": "function"
    }
  ],
  "bytecode": "0x608060405234801561001057600080fd5b50604051610ce8380380610ce883398101604081905261002f916100c4565b600080546001600160a01b031916339081178255604051909182917f8be0079c531659141344cd1fd0a4f28419497f9722a3daafe3b4186f6b6457e0908290a350600180546001600160a01b039485166001600160a01b03199182161790915560028054939094169216919091179091556003556100ff565b80516001600160a01b03811681146100bf57600080fd5b919050565b6000806000606084860312156100d8578283fd5b6100e1846100a8565b92506100ef602085016100a8565b9150604084015190509250925092565b610bda8061010e6000396000f3fe608060405234801561001057600080fd5b50600436106100f55760003560e01c80638ae39cac11610097578063a694fc3a11610066578063a694fc3a146101f9578063bb17e3301461020c578063c04637111461021f578063f2fde38b14610228576100f5565b80638ae39cac146101c35780638da5cb5b146101cc5780639d139062146101dd578063a16f5fd2146101f0576100f5565b8063372500ab116100d3578063372500ab1461013e57806343b0215f1461014657806351ed6a3014610190578063715018a6146101bb576100f5565b806301f8a976146100fa578063155dd5ee1461010f5780632c0316b314610122575b600080fd5b61010d610108366004610b08565b61023b565b005b61010d61011d366004610b08565b6102ab565b61012b60065481565b6040519081526020015b60405180910390f35b61010d610437565b610175610154366004610a95565b60076020526000908152604090208054600182015460029092015490919083565b60408051938452602084019290925290820152606001610135565b6001546101a3906001600160a01b031681565b6040516001600160a01b039091168152602001610135565b61010d61057b565b61012b60035481565b6000546001600160a01b03166101a3565b6002546101a3906001600160a01b031681565b61012b60045481565b61010d610207366004610b08565b61062c565b61012b61021a366004610ab6565b61074e565b61012b60055481565b61010d610236366004610a95565b610833565b6000546001600160a01b0316331461029a5760405162461bcd60e51b815260206004820181905260248201527f4f776e61626c653a2063616c6c6572206973206e6f7420746865206f776e657260448201526064015b60405180910390fd5b60038190556102a7610971565b5050565b6102bb6102b6610971565b6109b8565b33600090815260076020526040902054818110156103415760405162461bcd60e51b815260206004820152603260248201527f546f6b656e4661726d696e673a204e6f7420656e6f756768207374616b65642060448201527f746f6b656e7320746f20776974686472617700000000000000000000000000006064820152608401610291565b61034b8282610b77565b3360009081526007602052604081209190915560068054849290610370908490610b77565b909155505060015460405163a9059cbb60e01b8152336004820152602481018490526001600160a01b039091169063a9059cbb90604401602060405180830381600087803b1580156103c157600080fd5b505af11580156103d5573d6000803e3d6000fd5b505050506040513d601f19601f820116820180604052508101906103f99190610ae8565b5060408051338152602081018490527f6352c5382c4a4578e712449ca65e83cdb392d045dfcf1cad9615189db2da244b910160405180910390a15050565b6104426102b6610971565b33600090815260076020526040902060020154806104a25760405162461bcd60e51b815260206004820152601e60248201527f546f6b656e4661726d696e673a204e6f7468696e6720746f20636c61696d00006044820152606401610291565b336000818152600760205260408082206002908101929092559054905163a9059cbb60e01b81526004810192909252602482018390526001600160a01b03169063a9059cbb90604401602060405180830381600087803b15801561050557600080fd5b505af1158015610519573d6000803e3d6000fd5b505050506040513d601f19601f8201168201806040525081019061053d9190610ae8565b5060408051338152602081018390527ffc30cddea38e2bf4d6ea7d3f9ed3b6ad7f176419f4963bd81318067a4aee73fe91015b60405180910390a150565b6000546001600160a01b031633146105d55760405162461bcd60e51b815260206004820181905260248201527f4f776e61626c653a2063616c6c6572206973206e6f7420746865206f776e65726044820152606401610291565b600080546040516001600160a01b03909116907f8be0079c531659141344cd1fd0a4f28419497f9722a3daafe3b4186f6b6457e0908390a36000805473ffffffffffffffffffffffffffffffffffffffff19169055565b6106376102b6610971565b3360009081526007602052604081208054839290610656908490610b20565b92505081905550806006600082825461066f9190610b20565b90915550506001546040517f23b872dd000000000000000000000000000000000000000000000000000000008152336004820152306024820152604481018390526001600160a01b03909116906323b872dd90606401602060405180830381600087803b1580156106df57600080fd5b505af11580156106f3573d6000803e3d6000fd5b505050506040513d601f19601f820116820180604052508101906107179190610ae8565b5060408051338152602081018390527fb539ca1e5c8d398ddf1c41c30166f33404941683be4683319b57669a93dad4ef9101610570565b6001600160a01b038316600090815260076020526040812054801561082b57600061079060035460065460045461193261016d61078b9190610b58565b610a2a565b905060006107aa6a084595161401484a0000006064610b58565b6001600160a01b03881660009081526007602052604090206001015484906107d29085610b77565b6107dc9190610b58565b6107e69190610b38565b90506107f28387610b58565b6108086a084595161401484a0000006064610b58565b6108128784610b58565b61081c9190610b58565b6108269190610b38565b935050505b509392505050565b6000546001600160a01b0316331461088d5760405162461bcd60e51b815260206004820181905260248201527f4f776e61626c653a2063616c6c6572206973206e6f7420746865206f776e65726044820152606401610291565b6001600160a01b0381166109095760405162461bcd60e51b815260206004820152602660248201527f4f776e61626c653a206e6577206f776e657220697320746865207a65726f206160448201527f64647265737300000000000000000000000000000000000000000000000000006064820152608401610291565b600080546040516001600160a01b03808516939216917f8be0079c531659141344cd1fd0a4f28419497f9722a3daafe3b4186f6b6457e091a36000805473ffffffffffffffffffffffffffffffffffffffff19166001600160a01b0392909216919091179055565b6006546005546000919080156109875780610989565b435b905081156109af576109a760035483600454844361078b9190610b77565b600481905592505b50504360055590565b33600090815260076020526040902080548015610a23576109e56a084595161401484a0000006064610b58565b818360010154856109f69190610b77565b610a009190610b58565b610a0a9190610b38565b826002016000828254610a1d9190610b20565b90915550505b5060010155565b60008084610a446a084595161401484a0000006064610b58565b610a4e9088610b58565b610a589190610b38565b905083610a658285610b58565b610a6f9190610b20565b9695505050505050565b80356001600160a01b0381168114610a9057600080fd5b919050565b600060208284031215610aa6578081fd5b610aaf82610a79565b9392505050565b600080600060608486031215610aca578182fd5b610ad384610a79565b95602085013595506040909401359392505050565b600060208284031215610af9578081fd5b81518015158114610aaf578182fd5b600060208284031215610b19578081fd5b5035919050565b60008219821115610b3357610b33610b8e565b500190565b600082610b5357634e487b7160e01b81526012600452602481fd5b500490565b6000816000190483118215151615610b7257610b72610b8e565b500290565b600082821015610b8957610b89610b8e565b500390565b634e487b7160e01b600052601160045260246000fdfea2646970667358221220a0713f4669493f9a9aee9f3cce7dd0da25f4fd7ffc8ccc0a20c8425aa16f9f5e64736f6c63430008030033",
  "immutableReferences": {},
  "source": "// SPDX-License-Identifier: GPL-3.0\npragma solidity 0.8.3;\n\nimport \"@openzeppelin/contracts/access/Ownable.sol\";\nimport \"@openzeppelin/contracts/token/ERC20/ERC20.sol\";\n\nimport \"./common/Globals.sol\";\n\ncontract TokenFarming is Ownable {\n    ERC20 public stakeToken;\n    ERC20 public distributionToken;\n\n    uint256 public rewardPerBlock;\n\n    uint256 public cumulativeSum;\n    uint256 public lastUpdate;\n\n    uint256 public totalPoolStaked;\n\n    struct UserInfo {\n        uint256 stakedAmount;\n        uint256 lastCumulativeSum;\n        uint256 aggregatedReward;\n    }\n\n    mapping(address => UserInfo) public userInfos;\n\n    event TokensStaked(address _staker, uint256 _stakeAmount);\n    event TokensWithdrawn(address _staker, uint256 _withdrawAmount);\n    event RewardsClaimed(address _claimer, uint256 _rewardsAmount);\n\n    constructor(\n        address _stakeToken,\n        address _distributioToken,\n        uint256 _rewardPerBlock\n    ) {\n        stakeToken = ERC20(_stakeToken);\n        distributionToken = ERC20(_distributioToken);\n        rewardPerBlock = _rewardPerBlock;\n    }\n\n    modifier updateRewards() {\n        _updateUserRewards(_updateCumulativeSum());\n        _;\n    }\n\n    function updateRewardPerBlock(uint256 _newRewardPerBlock) external onlyOwner {\n        rewardPerBlock = _newRewardPerBlock;\n        _updateCumulativeSum();\n    }\n\n    function stake(uint256 _stakeAmount) external updateRewards {\n        userInfos[msg.sender].stakedAmount += _stakeAmount;\n        totalPoolStaked += _stakeAmount;\n\n        stakeToken.transferFrom(msg.sender, address(this), _stakeAmount);\n\n        emit TokensStaked(msg.sender, _stakeAmount);\n    }\n\n    function withdrawFunds(uint256 _amountToWithdraw) external updateRewards {\n        uint256 _currentStakedAmount = userInfos[msg.sender].stakedAmount;\n\n        require(\n            _currentStakedAmount >= _amountToWithdraw,\n            \"TokenFarming: Not enough staked tokens to withdraw\"\n        );\n\n        userInfos[msg.sender].stakedAmount = _currentStakedAmount - _amountToWithdraw;\n        totalPoolStaked -= _amountToWithdraw;\n\n        stakeToken.transfer(msg.sender, _amountToWithdraw);\n\n        emit TokensWithdrawn(msg.sender, _amountToWithdraw);\n    }\n\n    function claimRewards() external updateRewards {\n        uint256 _currentRewards = userInfos[msg.sender].aggregatedReward;\n\n        require(_currentRewards > 0, \"TokenFarming: Nothing to claim\");\n\n        delete userInfos[msg.sender].aggregatedReward;\n\n        distributionToken.transfer(msg.sender, _currentRewards);\n\n        emit RewardsClaimed(msg.sender, _currentRewards);\n    }\n\n    /// @dev prices with the same precision\n    function getAPY(\n        address _userAddr,\n        uint256 _stakeTokenPrice,\n        uint256 _distributionTokenPrice\n    ) external view returns (uint256 _resultAPY) {\n        uint256 _userStakeAmount = userInfos[_userAddr].stakedAmount;\n\n        if (_userStakeAmount > 0) {\n            uint256 _newCumulativeSum =\n                _getNewCumulativeSum(\n                    rewardPerBlock,\n                    totalPoolStaked,\n                    cumulativeSum,\n                    BLOCKS_PER_YEAR\n                );\n\n            uint256 _totalReward =\n                ((_newCumulativeSum - userInfos[_userAddr].lastCumulativeSum) * _userStakeAmount) /\n                    DECIMAL;\n\n            _resultAPY =\n                (_totalReward * _distributionTokenPrice * DECIMAL) /\n                (_stakeTokenPrice * _userStakeAmount);\n        }\n    }\n\n    function _updateCumulativeSum() internal returns (uint256 _newCumulativeSum) {\n        uint256 _totalPool = totalPoolStaked;\n        uint256 _lastUpdate = lastUpdate;\n        _lastUpdate = _lastUpdate == 0 ? block.number : _lastUpdate;\n\n        if (_totalPool > 0) {\n            _newCumulativeSum = _getNewCumulativeSum(\n                rewardPerBlock,\n                _totalPool,\n                cumulativeSum,\n                block.number - _lastUpdate\n            );\n\n            cumulativeSum = _newCumulativeSum;\n        }\n\n        lastUpdate = block.number;\n    }\n\n    function _getNewCumulativeSum(\n        uint256 _rewardPerBlock,\n        uint256 _totalPool,\n        uint256 _prevAP,\n        uint256 _blocksDelta\n    ) internal pure returns (uint256) {\n        uint256 _newPrice = (_rewardPerBlock * DECIMAL) / _totalPool;\n        return _blocksDelta * _newPrice + _prevAP;\n    }\n\n    function _updateUserRewards(uint256 _newCumulativeSum) internal {\n        UserInfo storage userInfo = userInfos[msg.sender];\n\n        uint256 _currentUserStakedAmount = userInfo.stakedAmount;\n\n        if (_currentUserStakedAmount > 0) {\n            userInfo.aggregatedReward +=\n                ((_newCumulativeSum - userInfo.lastCumulativeSum) * _currentUserStakedAmount) /\n                DECIMAL;\n        }\n\n        userInfo.lastCumulativeSum = _newCumulativeSum;\n    }\n}\n",
  "sourcePath": "/home/oleg/go/src/gitlab.com/tokenfarming/contracts/TokenFarming.sol",
  "compiler": {
    "name": "solc",
    "version": "0.8.3+commit.8d00100c.Emscripten.clang"
  },
  "schemaVersion": "3.4.1",
  "updatedAt": "2021-07-23T15:55:13.771Z",
  "devdoc": {
    "kind": "dev",
    "methods": {
      "getAPY(address,uint256,uint256)": {
        "details": "prices with the same precision"
      },
      "owner()": {
        "details": "Returns the address of the current owner."
      },
      "renounceOwnership()": {
        "details": "Leaves the contract without owner. It will not be possible to call `onlyOwner` functions anymore. Can only be called by the current owner. NOTE: Renouncing ownership will leave the contract without an owner, thereby removing any functionality that is only available to the owner."
      },
      "transferOwnership(address)": {
        "details": "Transfers ownership of the contract to a new account (`newOwner`). Can only be called by the current owner."
      }
    },
    "version": 1
  },
  "userdoc": {
    "kind": "user",
    "methods": {},
    "version": 1
  }
}